{
    "contractName": "DutchAuction",
    "abi": [
        {
            "inputs": [
                {
                    "internalType": "uint256",
                    "name": "_startingPrice",
                    "type": "uint256"
                },
                {
                    "internalType": "uint256",
                    "name": "_discountRate",
                    "type": "uint256"
                },
                {
                    "internalType": "address",
                    "name": "_nft",
                    "type": "address"
                },
                {
                    "internalType": "uint256",
                    "name": "_nftId",
                    "type": "uint256"
                }
            ],
            "stateMutability": "nonpayable",
            "type": "constructor"
        },
        {
            "inputs": [],
            "name": "buy",
            "outputs": [],
            "stateMutability": "payable",
            "type": "function"
        },
        {
            "inputs": [],
            "name": "discountRate",
            "outputs": [
                {
                    "internalType": "uint256",
                    "name": "",
                    "type": "uint256"
                }
            ],
            "stateMutability": "view",
            "type": "function"
        },
        {
            "inputs": [],
            "name": "expireaAt",
            "outputs": [
                {
                    "internalType": "uint256",
                    "name": "",
                    "type": "uint256"
                }
            ],
            "stateMutability": "view",
            "type": "function"
        },
        {
            "inputs": [],
            "name": "getPrice",
            "outputs": [
                {
                    "internalType": "uint256",
                    "name": "",
                    "type": "uint256"
                }
            ],
            "stateMutability": "view",
            "type": "function"
        },
        {
            "inputs": [],
            "name": "nft",
            "outputs": [
                {
                    "internalType": "contract IERC721",
                    "name": "",
                    "type": "address"
                }
            ],
            "stateMutability": "view",
            "type": "function"
        },
        {
            "inputs": [],
            "name": "nftId",
            "outputs": [
                {
                    "internalType": "uint256",
                    "name": "",
                    "type": "uint256"
                }
            ],
            "stateMutability": "view",
            "type": "function"
        },
        {
            "inputs": [],
            "name": "seller",
            "outputs": [
                {
                    "internalType": "address payable",
                    "name": "",
                    "type": "address"
                }
            ],
            "stateMutability": "view",
            "type": "function"
        },
        {
            "inputs": [],
            "name": "startAt",
            "outputs": [
                {
                    "internalType": "uint256",
                    "name": "",
                    "type": "uint256"
                }
            ],
            "stateMutability": "view",
            "type": "function"
        },
        {
            "inputs": [],
            "name": "startingPrice",
            "outputs": [
                {
                    "internalType": "uint256",
                    "name": "",
                    "type": "uint256"
                }
            ],
            "stateMutability": "view",
            "type": "function"
        }
    ],
    "bytecode": "61016060405234801561001157600080fd5b50604051610726380380610726833981016040819052610030916100d1565b3360c05260e08490524261010081905261004e9062093a8090610133565b6101205261014083905261006562093a808461014c565b8410156100b85760405162461bcd60e51b815260206004820152601460248201527f7374617274696e67207072696365203c206d696e000000000000000000000000604482015260640160405180910390fd5b6001600160a01b0390911660805260a052506101639050565b600080600080608085870312156100e757600080fd5b84516020860151604087015191955093506001600160a01b038116811461010d57600080fd5b6060959095015193969295505050565b634e487b7160e01b600052601160045260246000fd5b808201808211156101465761014661011d565b92915050565b80820281158282048414176101465761014661011d565b60805160a05160c05160e0516101005161012051610140516105336101f36000396000818161021f015261027801526000818161012201526102d10152600081816101b701526102490152600081816101eb01526102a4015260008181609d01528181610396015261048d01526000818161018301526103c401526000818160ee01526103ea01526105336000f3fe6080604052600436106100865760003560e01c8063a6f2ae3a11610059578063a6f2ae3a14610167578063c6bc518214610171578063c7446565146101a5578063d6fbf202146101d9578063e6c0e6d51461020d57600080fd5b806308551a531461008b57806347ccca02146100dc578063895b5de01461011057806398d5fdca14610152575b600080fd5b34801561009757600080fd5b506100bf7f000000000000000000000000000000000000000000000000000000000000000081565b6040516001600160a01b0390911681526020015b60405180910390f35b3480156100e857600080fd5b506100bf7f000000000000000000000000000000000000000000000000000000000000000081565b34801561011c57600080fd5b506101447f000000000000000000000000000000000000000000000000000000000000000081565b6040519081526020016100d3565b34801561015e57600080fd5b50610144610241565b61016f6102cf565b005b34801561017d57600080fd5b506101447f000000000000000000000000000000000000000000000000000000000000000081565b3480156101b157600080fd5b506101447f000000000000000000000000000000000000000000000000000000000000000081565b3480156101e557600080fd5b506101447f000000000000000000000000000000000000000000000000000000000000000081565b34801561021957600080fd5b506101447f000000000000000000000000000000000000000000000000000000000000000081565b60008061026e7f0000000000000000000000000000000000000000000000000000000000000000426104cd565b9050600061029c827f00000000000000000000000000000000000000000000000000000000000000006104e6565b90506102c8817f00000000000000000000000000000000000000000000000000000000000000006104cd565b9250505090565b7f000000000000000000000000000000000000000000000000000000000000000042106103355760405162461bcd60e51b815260206004820152600f60248201526e185d58dd1a5bdb88195e1c1a5c9959608a1b60448201526064015b60405180910390fd5b600061033f610241565b90508034101561037f5760405162461bcd60e51b815260206004820152600b60248201526a455448203c20707269636560a81b604482015260640161032c565b6040516323b872dd60e01b81526001600160a01b037f0000000000000000000000000000000000000000000000000000000000000000811660048301523360248301527f000000000000000000000000000000000000000000000000000000000000000060448301527f000000000000000000000000000000000000000000000000000000000000000016906323b872dd90606401600060405180830381600087803b15801561042e57600080fd5b505af1158015610442573d6000803e3d6000fd5b505050506000813461045491906104cd565b9050801561048b57604051339082156108fc029083906000818181858888f19350505050158015610489573d6000803e3d6000fd5b505b7f00000000000000000000000000000000000000000000000000000000000000006001600160a01b0316ff5b634e487b7160e01b600052601160045260246000fd5b818103818111156104e0576104e06104b7565b92915050565b80820281158282048414176104e0576104e06104b756fea2646970667358221220f51a582ee4f61179d31b6a1723ed5c4dddf5dc1b15960ce862668e73aa07d68c64736f6c63430008110033",
    "sourcePath": "e:/Amirmahdi/Code/Solidity/My Program/Dutch_Auction_NFT.sol",
    "compiler": {
        "name": "solc",
        "version": "0.8.17+commit.8df45f5f"
    },
    "functionHashes": {
        "buy()": "a6f2ae3a",
        "discountRate()": "e6c0e6d5",
        "expireaAt()": "895b5de0",
        "getPrice()": "98d5fdca",
        "nft()": "47ccca02",
        "nftId()": "c6bc5182",
        "seller()": "08551a53",
        "startAt()": "c7446565",
        "startingPrice()": "d6fbf202"
    },
    "gasEstimates": {
        "creation": {
            "codeDepositCost": "266200",
            "executionCost": "infinite",
            "totalCost": "infinite"
        },
        "external": {
            "buy()": "infinite",
            "discountRate()": "infinite",
            "expireaAt()": "infinite",
            "getPrice()": "infinite",
            "nft()": "infinite",
            "nftId()": "infinite",
            "seller()": "infinite",
            "startAt()": "infinite",
            "startingPrice()": "infinite"
        }
    }
}