{
    "contractName": "FindThisHash",
    "abi": [
        {
            "inputs": [],
            "stateMutability": "payable",
            "type": "constructor"
        },
        {
            "inputs": [],
            "name": "hash",
            "outputs": [
                {
                    "internalType": "bytes32",
                    "name": "",
                    "type": "bytes32"
                }
            ],
            "stateMutability": "view",
            "type": "function"
        },
        {
            "inputs": [
                {
                    "internalType": "string",
                    "name": "solution",
                    "type": "string"
                }
            ],
            "name": "solve",
            "outputs": [],
            "stateMutability": "nonpayable",
            "type": "function"
        }
    ],
    "bytecode": "60806040526102e0806100136000396000f3fe608060405234801561001057600080fd5b50600436106100365760003560e01c806309bd5a601461003b57806376fe1e9214610074575b600080fd5b6100627f564ccaf7594d66b1eaaea24fe01f0585bf52ee70852af4eac0cc4b04711cd0e281565b60405190815260200160405180910390f35b6100876100823660046101ca565b610089565b005b8060405160200161009a919061027b565b604051602081830303815290604052805190602001207f564ccaf7594d66b1eaaea24fe01f0585bf52ee70852af4eac0cc4b04711cd0e260001b146101195760405162461bcd60e51b815260206004820152601060248201526f24b731b7b93932b1ba1030b739bbb2b960811b60448201526064015b60405180910390fd5b6040516000903390678ac7230489e80000908381818185875af1925050503d8060008114610163576040519150601f19603f3d011682016040523d82523d6000602084013e610168565b606091505b50509050806101b05760405162461bcd60e51b81526020600482015260146024820152732330b4b632b2103a379039b2b7321022ba3432b960611b6044820152606401610110565b5050565b634e487b7160e01b600052604160045260246000fd5b6000602082840312156101dc57600080fd5b813567ffffffffffffffff808211156101f457600080fd5b818401915084601f83011261020857600080fd5b81358181111561021a5761021a6101b4565b604051601f8201601f19908116603f01168101908382118183101715610242576102426101b4565b8160405282815287602084870101111561025b57600080fd5b826020860160208301376000928101602001929092525095945050505050565b6000825160005b8181101561029c5760208186018101518583015201610282565b50600092019182525091905056fea2646970667358221220779eb920e06633f0bbd2850c543e52d17d0c19e7a0b8dae53f835e2efaed0cbf64736f6c63430008110033",
    "sourcePath": "e:/Amirmahdi/Code/Solidity/My Program/Front_Running_Vulnerability_in_Smart_Contracts.sol",
    "compiler": {
        "name": "solc",
        "version": "0.8.17+commit.8df45f5f"
    },
    "functionHashes": {
        "hash()": "09bd5a60",
        "solve(string)": "76fe1e92"
    },
    "gasEstimates": {
        "creation": {
            "codeDepositCost": "147200",
            "executionCost": "166",
            "totalCost": "147366"
        },
        "external": {
            "hash()": "161",
            "solve(string)": "infinite"
        }
    }
}